:08000000803102288731EE2F48
:100DFA00873166278631FD2EFE0012001E00FE0B8B
:100E0A00022F00340034003400340034003400343B
:100E1A000134003401340034003400340034003426
:100E2A0000340034F401F501701C1F2F7208F40716
:100E3A007308F53D0130F235F30D890B202F01308F
:100E4A00F136F00C890B252F70087104031D192F38
:100E5A007508F1007408F0000800F501F601700841
:100E6A0071040319612FF701F70AF11B462F0130AC
:100E7A00F035F10D890B3D2F0130F4007408F707A6
:100E8A003A2F0130F535F60D890B472F7108730299
:100E9A00031D512F70087202031C582F7008F202AA
:100EAA007108F33B75140130F136F00C890B592F98
:100EBA000130F702031D462F7608F1007508F0008D
:100ECA0008003F3086000030870020308400003060
:100EDA0085001030F80016001A00F80B702F200059
:100EEA00B801B901BA01BB01BE0106303E020318BE
:100EFA00B92F3E08F800F9017808F0007908F100E6
:100F0A003E35203E86008701403FF200413FF30014
:100F1A0087311727873171082000B7007008B6009B
:100F2A003708F1003608F000E830F2000330F30029
:100F3A0087311727873170082000B8077108B93D33
:100F4A003E35203E86008701403FF800413FF900C8
:100F5A007808BA077908BB3D0130F8007808BE075F
:100F6A0006303E02031C7E2F3A083B040319080090
:100F7A003B08F1003A08F0003908F3003808F2009B
:100F8A008731322771082000B3007008B200320896
:100F9A00543EBC00F230333DBD003C08D1073D0849
:100FAA00D23D4F09F8005009F900F80A0319F90A65
:100FBA003C087807B4003D08793DB500340851076C
:100FCA00B0003508523DB1003D08D0003C08CF00C2
:100FDA00080007308400873085003F3086000030E3
:100FEA008700103087310127CF01D001D101D2010A
:060FFA0020008631FD2EEF
:00000001FF
