:08000000803102288731F62F40
:100D7800640080010131890BBD2E0034F401F501B6
:100D8800701CCA2E7208F4077308F53D0130F2355D
:100D9800F30D890BCB2E0130F136F00C890BD02ED8
:100DA80070087104031DC42E7508F1007408F00062
:100DB8000800FA01FB0101302000A0000030A1006A
:100DC8000130A2000030A3000130A4000030A500CB
:100DD800E830A6000330A70087312D278631200090
:100DE8002108FB002008FA00DD2EF501F601700845
:100DF80071040319282FF701F70AF11B0D2F013091
:100E0800F035F10D890B042F0130F4007408F70751
:100E1800012F0130F535F60D890B0E2F710873027D
:100E2800031D182F70087202031C1F2F7008F2028E
:100E38007108F33B75140130F136F00C890B202F43
:100E48000130F702031D0D2F7608F1007508F00038
:100E580008004730860000308700283084000030C2
:100E680085001030F80016001A00F80B372F200004
:100E7800BE01BF01C001C101C60106304602031808
:100E8800802F4608F800F9017808F0007908F10089
:100E98004635283E86008701403FF200413FF30077
:100EA8008631C226873171082000C3007008C2004D
:100EB8004308F1004208F000E830F2000330F30084
:100EC8008631C226873170082000BE077108BF3DF1
:100ED8004635283E86008701403FF800413FF9002B
:100EE8007808C0077908C13D0130F8007808C607BE
:100EF80006304602031C452F400841040319F12F10
:100F08004108F1004008F0003F08F3003E08F200F5
:100F18008631F926873171082000B9007008B800B9
:100F28003808543EC400F230393DC5004408D7079C
:100F38004508D83D5909F8005A09F900F80A031973
:100F4800F90A44087807BA004508793DBB0021082A
:100F5800F1002008F0002308F3002208F20086318F
:100F6800C226873171082000C3007008C2004308F8
:100F7800F1004208F0005808F3005708F2008631E3
:100F8800C22687317008F8007108F900200025088A
:100F9800F1002408F0003B08F3003A08F20086311B
:100FA800C2268731700878072000BC007108793D97
:100FB800BD004508DA004408D9002708F1002608D2
:100FC800F0003D08F3003C08F2008631F92671086C
:100FD8002000A1007008A0000800FF30A000FF302A
:100FE800A1000800473084000030850014308631A5
:080FF800BC2620008631DD2E2D
:00000001FF
