:08000000803102288731F62F40
:100DF600640080010131890BFC2E0034FC01FD01E9
:100E060087315A2787317908FD007808FC00012FC1
:100E1600F401F501701C132F7208F4077308F53DF1
:100E26000130F235F30D890B142F0130F136F00C39
:100E3600890B192F70087104031D0D2F7508F10019
:100E46007408F0000800F501F60170087104031932
:100E5600552FF701F70AF11B3A2F0130F035F10D46
:100E6600890B312F0130F4007408F7072E2F01305B
:100E7600F535F60D890B3B2F71087302031D452FBF
:100E860070087202031C4C2F7008F2027108F33BC3
:100E960075140130F136F00C890B4D2F0130F70235
:100EA600031D3A2F7608F1007508F00008003F3060
:100EB6008600003087002030840000308500103026
:100EC600FA0016001A00FA0B642F2000B801B901C7
:100ED600BA01BB01BE0106303E020318AD2F3E0823
:100EE600FA00FB017A08F0007B08F1003E35203E4F
:100EF60086008701403FF200413FF30087310B2710
:100F0600873171082000B7007008B6003708F10075
:100F16003608F000E830F2000330F30087310B2783
:100F2600873170082000B8077108B93D3E35203E6C
:100F360086008701403FFA00413FFB007A08BA0766
:100F46007B08BB3D0130FA007A08BE0706303E0238
:100F5600031C722F3A083B040319F12F3B08F100DA
:100F66003A08F0003908F3003808F20087312627DE
:100F7600873171082000B1007008B0003008543E77
:100F8600BC00F230313DBD003C08D1073D08D23DE2
:100F96004F09FA005009FB00FA0A0319FB0A3C083C
:100FA6007A07B2003D087B3DB30032085107B40012
:100FB6003308523DB5003D08D0003C08CF00E8306C
:100FC600F0000330F1003508F3003408F2008731F1
:100FD60026277108F9007008F8000800FF30F800AD
:100FE600FF30F90008003F308400003085001430DF
:0A0FF6008631FB2620008731012F11
:00000001FF
