:08000000803102288731F62F40
:100DD000640080010131890BE92E0034F401F50132
:100DE000701CF62E7208F4077308F53D0130F235D9
:100DF000F30D890BF72E0130F136F00C890BFC2E28
:100E000070087104031DF02E7508F1007408F000DD
:100E10000800FA01FB0101302000A0000030A10011
:100E20000130A2000030A3000130A4000030A50072
:100E3000E830A6000330A70087315927873120000A
:100E40002108FB002008FA00092FF501F6017008BF
:100E500071040319542FF701F70AF11B392F0130E0
:100E6000F035F10D890B302F0130F4007408F707CD
:100E70002D2F0130F535F60D890B3A2F71087302CD
:100E8000031D442F70087202031C4B2F7008F202DE
:100E90007108F33B75140130F136F00C890B4C2FBF
:100EA0000130F702031D392F7608F1007508F000B4
:100EB000080047308600003087002830840000306A
:100EC00085001030F80016001A00F80B632F200080
:100ED000C001C101C201C301C601063046020318A8
:100EE000AC2F4608F800F9017808F0007908F10005
:100EF0004635283E86008701403FF200413FF3001F
:100F00008631EE26873171082000BF007008BE00D0
:100F10003F08F1003E08F000E830F2000330F30033
:100F20008631EE26873170082000C0077108C13D68
:100F30004635283E86008701403FF800413FF900D2
:100F40007808C2077908C33D0130F8007808C60761
:100F500006304602031C712F420843040319F12F87
:100F60004308F1004208F0004108F3004008F20095
:100F700087312527873171082000B9007008B80033
:100F80003808543EC400F230393DC5004408D90742
:100F90004508DA3D5709F8005809F900F80A03191D
:100FA000F90A44087807BA004508793DBB003A08B9
:100FB0005907BC003B085A3DBD004508D80044080D
:100FC000D700E830F0000330F1003D08F3003C08A2
:100FD000F2008731252771082000A1007008A000C9
:100FE0000800FF30A000FF30A10008004730840057
:100FF0000030850014308631E82620008731092F23
:00000001FF
